{
  "contractName": "DecentralBank",
  "abi": [
    {
      "inputs": [
        {
          "internalType": "contract RWD",
          "name": "_rwd",
          "type": "address"
        },
        {
          "internalType": "contract Tether",
          "name": "_tether",
          "type": "address"
        }
      ],
      "stateMutability": "nonpayable",
      "type": "constructor"
    },
    {
      "inputs": [
        {
          "internalType": "address",
          "name": "",
          "type": "address"
        }
      ],
      "name": "hasStaked",
      "outputs": [
        {
          "internalType": "bool",
          "name": "",
          "type": "bool"
        }
      ],
      "stateMutability": "view",
      "type": "function"
    },
    {
      "inputs": [
        {
          "internalType": "address",
          "name": "",
          "type": "address"
        }
      ],
      "name": "isStaking",
      "outputs": [
        {
          "internalType": "bool",
          "name": "",
          "type": "bool"
        }
      ],
      "stateMutability": "view",
      "type": "function"
    },
    {
      "inputs": [],
      "name": "name",
      "outputs": [
        {
          "internalType": "string",
          "name": "",
          "type": "string"
        }
      ],
      "stateMutability": "view",
      "type": "function"
    },
    {
      "inputs": [],
      "name": "owner",
      "outputs": [
        {
          "internalType": "address",
          "name": "",
          "type": "address"
        }
      ],
      "stateMutability": "view",
      "type": "function"
    },
    {
      "inputs": [],
      "name": "rwd",
      "outputs": [
        {
          "internalType": "contract RWD",
          "name": "",
          "type": "address"
        }
      ],
      "stateMutability": "view",
      "type": "function"
    },
    {
      "inputs": [
        {
          "internalType": "uint256",
          "name": "",
          "type": "uint256"
        }
      ],
      "name": "stakers",
      "outputs": [
        {
          "internalType": "address",
          "name": "",
          "type": "address"
        }
      ],
      "stateMutability": "view",
      "type": "function"
    },
    {
      "inputs": [
        {
          "internalType": "address",
          "name": "",
          "type": "address"
        }
      ],
      "name": "stakingBalance",
      "outputs": [
        {
          "internalType": "uint256",
          "name": "",
          "type": "uint256"
        }
      ],
      "stateMutability": "view",
      "type": "function"
    },
    {
      "inputs": [],
      "name": "tether",
      "outputs": [
        {
          "internalType": "contract Tether",
          "name": "",
          "type": "address"
        }
      ],
      "stateMutability": "view",
      "type": "function"
    },
    {
      "inputs": [
        {
          "internalType": "uint256",
          "name": "_amount",
          "type": "uint256"
        }
      ],
      "name": "depositTokens",
      "outputs": [],
      "stateMutability": "nonpayable",
      "type": "function"
    },
    {
      "inputs": [],
      "name": "issueTokens",
      "outputs": [],
      "stateMutability": "nonpayable",
      "type": "function"
    }
  ],
  "bytecode": "0x60806040523480156200001157600080fd5b50604051620011da380380620011da833981810160405281019062000037919062000282565b6040518060400160405280600e81526020017f446563656e7472616c2042616e6b00000000000000000000000000000000000081525060019080519060200190620000849291906200010f565b5081600360006101000a81548173ffffffffffffffffffffffffffffffffffffffff021916908373ffffffffffffffffffffffffffffffffffffffff16021790555080600260006101000a81548173ffffffffffffffffffffffffffffffffffffffff021916908373ffffffffffffffffffffffffffffffffffffffff16021790555050506200032d565b8280546200011d90620002f8565b90600052602060002090601f0160209004810192826200014157600085556200018d565b82601f106200015c57805160ff19168380011785556200018d565b828001600101855582156200018d579182015b828111156200018c5782518255916020019190600101906200016f565b5b5090506200019c9190620001a0565b5090565b5b80821115620001bb576000816000905550600101620001a1565b5090565b600080fd5b600073ffffffffffffffffffffffffffffffffffffffff82169050919050565b6000620001f182620001c4565b9050919050565b60006200020582620001e4565b9050919050565b6200021781620001f8565b81146200022357600080fd5b50565b60008151905062000237816200020c565b92915050565b60006200024a82620001e4565b9050919050565b6200025c816200023d565b81146200026857600080fd5b50565b6000815190506200027c8162000251565b92915050565b600080604083850312156200029c576200029b620001bf565b5b6000620002ac8582860162000226565b9250506020620002bf858286016200026b565b9150509250929050565b7f4e487b7100000000000000000000000000000000000000000000000000000000600052602260045260246000fd5b600060028204905060018216806200031157607f821691505b602082108103620003275762000326620002c9565b5b50919050565b610e9d806200033d6000396000f3fe608060405234801561001057600080fd5b506004361061009e5760003560e01c80636f49712b116100665780636f49712b146101375780638da5cb5b14610167578063c93c8f3414610185578063dd49756e146101b5578063fd5e6dd1146101d15761009e565b806306fdde03146100a35780631a8972d3146100c157806345bc78ab146100df5780635efc071a1461010f57806360ab58521461012d575b600080fd5b6100ab610201565b6040516100b891906108c5565b60405180910390f35b6100c961028f565b6040516100d69190610966565b60405180910390f35b6100f960048036038101906100f491906109c4565b6102b5565b6040516101069190610a0a565b60405180910390f35b6101176102cd565b6040516101249190610a46565b60405180910390f35b6101356102f3565b005b610151600480360381019061014c91906109c4565b6104e5565b60405161015e9190610a7c565b60405180910390f35b61016f610505565b60405161017c9190610aa6565b60405180910390f35b61019f600480360381019061019a91906109c4565b610529565b6040516101ac9190610a7c565b60405180910390f35b6101cf60048036038101906101ca9190610aed565b610549565b005b6101eb60048036038101906101e69190610aed565b6107ed565b6040516101f89190610aa6565b60405180910390f35b6001805461020e90610b49565b80601f016020809104026020016040519081016040528092919081815260200182805461023a90610b49565b80156102875780601f1061025c57610100808354040283529160200191610287565b820191906000526020600020905b81548152906001019060200180831161026a57829003601f168201915b505050505081565b600360009054906101000a900473ffffffffffffffffffffffffffffffffffffffff1681565b60056020528060005260406000206000915090505481565b600260009054906101000a900473ffffffffffffffffffffffffffffffffffffffff1681565b60008054906101000a900473ffffffffffffffffffffffffffffffffffffffff1673ffffffffffffffffffffffffffffffffffffffff163373ffffffffffffffffffffffffffffffffffffffff1614610381576040517f08c379a000000000000000000000000000000000000000000000000000000000815260040161037890610bc6565b60405180910390fd5b60005b6004805490508110156104e2576000600482815481106103a7576103a6610be6565b5b9060005260206000200160009054906101000a900473ffffffffffffffffffffffffffffffffffffffff16905060006009600560008473ffffffffffffffffffffffffffffffffffffffff1673ffffffffffffffffffffffffffffffffffffffff168152602001908152602001600020546104229190610c73565b905060008111156104cf57600360009054906101000a900473ffffffffffffffffffffffffffffffffffffffff1673ffffffffffffffffffffffffffffffffffffffff1663a9059cbb83836040518363ffffffff1660e01b815260040161048a929190610ca4565b6020604051808303816000875af11580156104a9573d6000803e3d6000fd5b505050506040513d601f19601f820116820180604052508101906104cd9190610cf9565b505b5050806104db90610d26565b9050610384565b50565b60076020528060005260406000206000915054906101000a900460ff1681565b60008054906101000a900473ffffffffffffffffffffffffffffffffffffffff1681565b60066020528060005260406000206000915054906101000a900460ff1681565b6000811161058c576040517f08c379a000000000000000000000000000000000000000000000000000000000815260040161058390610dba565b60405180910390fd5b600260009054906101000a900473ffffffffffffffffffffffffffffffffffffffff1673ffffffffffffffffffffffffffffffffffffffff166323b872dd3330846040518463ffffffff1660e01b81526004016105eb93929190610dda565b6020604051808303816000875af115801561060a573d6000803e3d6000fd5b505050506040513d601f19601f8201168201806040525081019061062e9190610cf9565b5080600560003373ffffffffffffffffffffffffffffffffffffffff1673ffffffffffffffffffffffffffffffffffffffff168152602001908152602001600020600082825461067e9190610e11565b92505081905550600660003373ffffffffffffffffffffffffffffffffffffffff1673ffffffffffffffffffffffffffffffffffffffff16815260200190815260200160002060009054906101000a900460ff1661073a576004339080600181540180825580915050600190039060005260206000200160009091909190916101000a81548173ffffffffffffffffffffffffffffffffffffffff021916908373ffffffffffffffffffffffffffffffffffffffff1602179055505b6001600760003373ffffffffffffffffffffffffffffffffffffffff1673ffffffffffffffffffffffffffffffffffffffff16815260200190815260200160002060006101000a81548160ff0219169083151502179055506001600660003373ffffffffffffffffffffffffffffffffffffffff1673ffffffffffffffffffffffffffffffffffffffff16815260200190815260200160002060006101000a81548160ff02191690831515021790555050565b600481815481106107fd57600080fd5b906000526020600020016000915054906101000a900473ffffffffffffffffffffffffffffffffffffffff1681565b600081519050919050565b600082825260208201905092915050565b60005b8381101561086657808201518184015260208101905061084b565b83811115610875576000848401525b50505050565b6000601f19601f8301169050919050565b60006108978261082c565b6108a18185610837565b93506108b1818560208601610848565b6108ba8161087b565b840191505092915050565b600060208201905081810360008301526108df818461088c565b905092915050565b600073ffffffffffffffffffffffffffffffffffffffff82169050919050565b6000819050919050565b600061092c610927610922846108e7565b610907565b6108e7565b9050919050565b600061093e82610911565b9050919050565b600061095082610933565b9050919050565b61096081610945565b82525050565b600060208201905061097b6000830184610957565b92915050565b600080fd5b6000610991826108e7565b9050919050565b6109a181610986565b81146109ac57600080fd5b50565b6000813590506109be81610998565b92915050565b6000602082840312156109da576109d9610981565b5b60006109e8848285016109af565b91505092915050565b6000819050919050565b610a04816109f1565b82525050565b6000602082019050610a1f60008301846109fb565b92915050565b6000610a3082610933565b9050919050565b610a4081610a25565b82525050565b6000602082019050610a5b6000830184610a37565b92915050565b60008115159050919050565b610a7681610a61565b82525050565b6000602082019050610a916000830184610a6d565b92915050565b610aa081610986565b82525050565b6000602082019050610abb6000830184610a97565b92915050565b610aca816109f1565b8114610ad557600080fd5b50565b600081359050610ae781610ac1565b92915050565b600060208284031215610b0357610b02610981565b5b6000610b1184828501610ad8565b91505092915050565b7f4e487b7100000000000000000000000000000000000000000000000000000000600052602260045260246000fd5b60006002820490506001821680610b6157607f821691505b602082108103610b7457610b73610b1a565b5b50919050565b7f63616c6c6572206d75737420626520746865206f776e65720000000000000000600082015250565b6000610bb0601883610837565b9150610bbb82610b7a565b602082019050919050565b60006020820190508181036000830152610bdf81610ba3565b9050919050565b7f4e487b7100000000000000000000000000000000000000000000000000000000600052603260045260246000fd5b7f4e487b7100000000000000000000000000000000000000000000000000000000600052601260045260246000fd5b7f4e487b7100000000000000000000000000000000000000000000000000000000600052601160045260246000fd5b6000610c7e826109f1565b9150610c89836109f1565b925082610c9957610c98610c15565b5b828204905092915050565b6000604082019050610cb96000830185610a97565b610cc660208301846109fb565b9392505050565b610cd681610a61565b8114610ce157600080fd5b50565b600081519050610cf381610ccd565b92915050565b600060208284031215610d0f57610d0e610981565b5b6000610d1d84828501610ce4565b91505092915050565b6000610d31826109f1565b91507fffffffffffffffffffffffffffffffffffffffffffffffffffffffffffffffff8203610d6357610d62610c44565b5b600182019050919050565b7f616d6f756e742063616e6e6f74206265203c3d20300000000000000000000000600082015250565b6000610da4601583610837565b9150610daf82610d6e565b602082019050919050565b60006020820190508181036000830152610dd381610d97565b9050919050565b6000606082019050610def6000830186610a97565b610dfc6020830185610a97565b610e0960408301846109fb565b949350505050565b6000610e1c826109f1565b9150610e27836109f1565b9250827fffffffffffffffffffffffffffffffffffffffffffffffffffffffffffffffff03821115610e5c57610e5b610c44565b5b82820190509291505056fea26469706673582212205b140e4eadfa49382aa957aa3ae39b068f0c51d4998bd24a721d532e256c3fc664736f6c634300080d0033",
  "immutableReferences": {},
  "source": "// SPDX-License-Identifier: NONE\npragma solidity ^0.8.13;\n\nimport './RWD.sol';\nimport './Tether.sol';\n\ncontract DecentralBank {\n  address public owner;\n  string public name;\n  Tether public tether;\n  RWD public rwd;\n\n  address[] public stakers;\n\n  mapping(address => uint) public stakingBalance;\n  mapping(address => bool) public hasStaked;\n  mapping(address => bool) public isStaking;\n\n  constructor (RWD _rwd, Tether _tether) {\n    name = 'Decentral Bank';\n    rwd = _rwd;\n    tether = _tether;\n  }\n\n  function depositTokens(uint _amount) public {\n    require(_amount > 0, 'amount cannot be <= 0');\n\n    // Transfer tether tokens to this contract address for staking\n    tether.transferFrom(msg.sender, address(this), _amount);\n\n    // Update staking balance\n    stakingBalance[msg.sender] += _amount;\n\n    if (!hasStaked[msg.sender]) {\n      stakers.push(msg.sender);\n    }\n\n    // Update staking balance\n    isStaking[msg.sender] = true;\n    hasStaked[msg.sender] = true;\n  }\n\n    function issueTokens() public {\n      // Require the owner to issue tokens only\n      require(msg.sender == owner, 'caller must be the owner');\n\n      for (uint i = 0; i < stakers.length; ++i) {\n        address recipient = stakers[i];\n        uint balance = stakingBalance[recipient] / 9; // Create percentage incentive for stakers\n        if (balance > 0) rwd.transfer(recipient, balance);\n\n      }\n    }\n}\n",
  "sourcePath": "/Users/gerry-saporito/Documents/Projects/defi-staking-app-starter/src/contracts/DecentralBank.sol",
  "compiler": {
    "name": "solc",
    "version": "0.8.13+commit.abaa5c0e.Emscripten.clang"
  },
  "schemaVersion": "3.4.6",
  "updatedAt": "2022-04-01T01:10:11.153Z",
  "devdoc": {
    "kind": "dev",
    "methods": {},
    "version": 1
  },
  "userdoc": {
    "kind": "user",
    "methods": {},
    "version": 1
  }
}